8=FIX.4.2|9=73|35=A|34=1|49=client|52=20210405-03:40:43.309|56=server|98=0|108=10|141=Y|10=055|