8=FIX.4.2|9=73|35=A|34=1|49=server|52=20210404-04:34:32.287|56=client|98=0|108=30|141=Y|10=063|8=FIX.4.2|9=115|35=D|34=2|49=server|52=20210404-04:34:42.308|56=client|11=124|21=3|40=1|54=1|55=SSSSSS.J1|60=20210404-04:34:42.307|10=233|8=FIX.4.2|9=115|35=D|34=3|49=server|52=20210404-04:34:42.309|56=client|11=125|21=3|40=1|54=1|55=SSSSSS.J2|60=20210404-04:34:42.309|10=239|8=FIX.4.2|9=115|35=D|34=4|49=server|52=20210404-04:34:42.310|56=client|11=126|21=3|40=1|54=1|55=SSSSSS.J3|60=20210404-04:34:42.310|10=226|8=FIX.4.2|9=115|35=D|34=5|49=server|52=20210404-04:34:42.311|56=client|11=127|21=3|40=1|54=1|55=SSSSSS.J4|60=20210404-04:34:42.311|10=231|8=FIX.4.2|9=115|35=D|34=6|49=server|52=20210404-04:34:42.312|56=client|11=128|21=3|40=1|54=1|55=SSSSSS.J5|60=20210404-04:34:42.312|10=236|8=FIX.4.2|9=115|35=D|34=7|49=server|52=20210404-04:34:42.313|56=client|11=129|21=3|40=1|54=1|55=SSSSSS.J6|60=20210404-04:34:42.313|10=241|8=FIX.4.2|9=115|35=D|34=8|49=server|52=20210404-04:34:42.314|56=client|11=130|21=3|40=1|54=1|55=SSSSSS.J7|60=20210404-04:34:42.314|10=237|8=FIX.4.2|9=115|35=D|34=9|49=server|52=20210404-04:34:42.315|56=client|11=131|21=3|40=1|54=1|55=SSSSSS.J8|60=20210404-04:34:42.315|10=242|8=FIX.4.2|9=116|35=D|34=10|49=server|52=20210404-04:34:42.316|56=client|11=132|21=3|40=1|54=1|55=SSSSSS.J9|60=20210404-04:34:42.316|10=031|