8=FIX.4.4|9=73|35=A|34=1|49=server|52=20210405-04:22:18.502|56=client|98=0|108=30|141=Y|10=057|8=FIX.4.4|9=55|35=0|34=2|49=server|52=20210405-04:22:48.828|56=client|10=241|8=FIX.4.4|9=55|35=0|34=3|49=server|52=20210405-04:23:18.828|56=client|10=240|